:02000000C52A0F
:10000600313083120313FD00FD0B072800000000AA
:020016000800E0
:080018000000000000000800D8
:10002000163083120313FC006C30FD00FD0B162804
:08003000FC0B1628000008007B
:1000380083160313EF1B23288312851325288312A5
:10004800851783166F1B2B28831205132D288312FF
:1000580005178316EF1A3328831285123528831261
:10006800851683166F1A3B28831205123D288312C2
:100078000516831669184328831205154528831227
:10008800051185150C2085118316EF194E2883124A
:10009800851350288312851783166F1956288312E3
:1000A80005135828831205178316EF185E28831244
:1000B800851260288312851683166F1866288312A6
:1000C8000512682883120516831669186E2883128C
:1000D800051570288312051185150C2085118316C6
:0C00E800691C78281020792803200800EB
:1000F400710DF80DF90D7408F8027508031C750FDD
:10010400F902F00DF10D0F30FC00710DF80DF90D31
:100114007408701C9328F8027508031C750FF90203
:100124009828F80775080318750FF907F00DF10DF5
:10013400FC0B87287018A4287408F807750803189E
:08014400750FF9070000080027
:10014C008316031369106E08EF001C2083166914C4
:02015C00080099
:0E015E008316031368088A00670882000800F1
:10016C00831203137408003A031DC5287508003A5E
:10017C00031DC528FF30F0007F30F1001E298312CB
:10018C000313FD01F901F80171087004031900341F
:10019C0071087506FA00FA1BFD09FB01F51FDB2837
:1001AC00F409F509F40A0319F50AF11FE228F0091C
:1001BC00F109F00A0319F10A71087504FA00FA1B27
:1001CC00F7287A207B180A29FD1F0034F009F10961
:1001DC00F00A0319F10AF809F909F80A0319F90ADE
:1001EC000034F51F0629F11B02297108F90070086B
:1001FC00F800F101F001EA28F101F001F00A0034F5
:10020C00F109F009FB0AE728F80A0319F90A74083E
:10021C007802031DEA2875087902031DEA28F90102
:10022C00F801F00A0319F10AF11FEA280000FF3463
:02023C000800B8
:10023E003129803083160313EA004429C030EA00C6
:10024E0044299430EA004429D430EA00442980300D
:10025E00EA004429831603136A08013A0319202978
:10026E006A08023A031925296A08033A031928294C
:10027E006A08043A03192B292E296B03F0006A0829
:10028E00F0077008EA007008EF001C208316691052
:10029E00ED016D086C078400000803195E296D08D6
:1002AE006C0784000008EE00A620ED0A50296914A0
:0202BE00080036
:1002C000831203134E08013EF000F1010318F10AF6
:1002D0000330F4000030F500B6207808F00079080B
:1002E000F1007008CE0001308316EF001C20A82911
:1002F00001308316EA000630EB005F30EC001F216E
:100300000230EA000630EB005730EC001F21B5291F
:1003100083160130EA000630EB004F30EC001F215D
:100320000230EA000630EB004630EC001F21B52910
:1003300083160130EA000630EB002930EC001F2163
:100340000230EA000630EB002130EC001F21B52915
:1003500083124E08013A031978294E08023A03190C
:0C03600088294E08003A0319982908006B
:10036C00831203132008013EF000F1010318F10A77
:10037C000430F4000030F500B6207808F00079085D
:10038C00F1007008A00001308316EF001C20FE293C
:10039C0001308316EA000530EB003F30EC001F21E2
:1003AC000430831286000E2A01308316EA000530D1
:1003BC00EB003A30EC001F210830831286000E2A25
:1003CC0001308316EA000530EB003130EC001F21C0
:1003DC001030831286000E2A01308316EA00053095
:1003EC00EB00A030EC001F212030831286000E2A77
:1003FC002008013A0319CE292008023A0319DA29F8
:10040C002008033A0319E6292008003A0319F229B7
:02041C000800D6
:10041E008316031385110511051285120513851315
:10042E0083128511051185130513851205121020EF
:10043E00102010208516051685150C20851110200C
:10044E0085150C208511102085150C208511102086
:10045E00051285150C208511102085150C2085118F
:10046E008512851785150C2085111020851305160C
:10047E0085150C208511051285150C20851110206F
:10048E0085150C208511051685150C20851110205B
:10049E00051285150C20851185170517851605166D
:0E04AE0085150C208511102083166914080096
:1004BC00AA2A013083160313EA000530EB006730DB
:1004CC00EC001F21831206172E30FB00A930FC0014
:1004DC002F30FD00FD0B702AFC0B702AFB0B702AD1
:1004EC000613B82A01308316EA000530EB00C7303A
:1004FC00EC001F21831206174D30FB001930FC0055
:10050C004F30FD00FD0B882AFC0B882AFB0B882A38
:10051C00000000000613B82A01308316EA000530EB
:10052C00EB00BE30EC001F21831206176B30FB0072
:10053C008930FC007130FD00FD0BA22AFC0BA22AB5
:10054C00FB0BA22A0613B82A831203134E08013A96
:10055C0003195F2A4E08023A0319782A4E08003A0A
:06056C000319922A0800A9
:10057200AF208A110A128000840AE70A0319E80AE6
:08058200F003031DB92A080073
:10058A004E248316031306148614061186110612C6
:10059A00861206130F220130EF001C200C3083163E
:1005AA00EF001C2001308316EA000430EB00DC3037
:1005BA00EC001F214D30FB001930FC004F30FD00CC
:1005CA00FD0BE52AFC0BE52AFB0BE52A00000000DF
:1005DA000130EF001C2001308316EA000130EB00E5
:1005EA002B30EC001F210230EA000430EB002030EF
:1005FA00EC001F2183128601861C242B0230FB008B
:10060A008630FC009930FD00FD0B092BFC0B092BF1
:10061A00FB0B092B861C242B01308316EF001C20B0
:10062A000830FB009D30FC000530FD00FD0B1B2B44
:10063A00FC0B1B2BFB0B1B2B000000003D2B061C8D
:10064A003C2BC330FC00CD30FD00FD0B2A2BFC0BEC
:10065A002A2B061C3C2BB621061C342B312BC3300B
:10066A00FC00CD30FD00FD0B382BFC0B382B012B89
:10067A0001308316EA000330EB00D030EC001F2172
:10068A000230EA000530EB00B630EC001F2183127D
:10069A00861C5E2B0230FB008630FC009930FD0080
:1006AA00FD0B552BFC0B552BFB0B552B861C5E2B80
:1006BA00792B061C782BC330FC00CD30FD00FD0BD6
:1006CA00642BFC0B642B061C782B6021831203130A
:1006DA00061C702B6B2BC330FC00CD30FD00FD0BCC
:1006EA00742BFC0B742B4C2B01308316EF001C204F
:1006FA005E2201308316EF001C2001308316EA00C7
:10070A000330EB00AA30EC001F212E30FB00A93089
:10071A00FC002F30FD00FD0B902BFC0B902BFB0BEC
:06072A00902BED2A972B35
:10089C0020308400473083120313F0009D30831600
:1008AC00E7000330E800B922A03084000A3083123C
:1008BC00F0003B308316E7000430E800B9226730C3
:1008CC00840009308312F00045308316E7000430B1
:1008DC00E800B922AA3084003D308312F000E430E5
:1008EC008316E7000330E800B92220308317840018
:1008FC001A308312F00021308316E7000430E80030
:06090C00B922831308006C
:02073A00003489
:10073C002034203420342034203420345E340034EF
:10074C005034203420344D34203420344734003499
:10075C004834653469346E3465346B3465346E34C6
:02076C00003457
:0A076E0053346B346F346C340034E4
:0E07780042347234613468346D3461340034BC
:100786002034203420345E342034203420340034A5
:0207960000342D
:100798005034203420344D3420342034473400344D
:1007A8005E34203420342034203420342034003483
:1007B8005034203420344D3420342034473400342D
:1007C80043346F3470346F342034633468346534A0
:0807D80069346F342134003450
:1007E000743461346D3461346E3468346F34003481
:1007F00045346E346334683465346E3464346F3435
:020800000034C2
:1008020045346E346334683465346E3464346F3422
:020812000034B0
:10081400533465346C346534633469346F346E3402
:08082400653420346F34003408
:10082C00423465346D342D34563469346E3464344A
:06083C006F34213400348A
:10084200643465342034733465346C346534E7348D
:06085200E3346F340034B2
:1008580041347034653472347434653420346F3400
:0E086800203462346F347434E3346F3400345F
:1008760041346E347434613472347434693463349C
:0408860061340034A5
:10088A0045346E346334683465346E3464346F349A
:02089A00003428
:02400E006A2125
:00000001FF
